:020000040000FA
:10000000700200200D03000015030000170300001C
:10001000190300001B0300001D0300000000000086
:100020000000000000000000000000001F030000AE
:10003000210300000000000023030000250300004E
:1000400027030000290300002B0300002D030000FC
:100050002F030000310300003303000035030000CC
:1000600037030000390300003B0300003D0300009C
:100070003F0300004103000043030000450300006C
:1000800047030000490300004B0300004D0300003C
:100090004F0300005103000053030000550300000C
:1000A00057030000590300005B0300005D030000DC
:1000B0005F030000610300006303000065030000AC
:1000C00067030000690300006B0300006D0300007C
:1000D0006F0300007103000073030000750300004C
:1000E0007703000079030000000000007B0300009C
:1000F0007D0300007F0300008103000083030000F4
:100100008503000087030000890300008B030000C3
:1001100000000000000000008D0300008F030000BD
:100120009103000093030000950300009703000073
:10013000990300009B0300009D0300009F03000043
:1001400000000000000000000000000000000000AF
:10015000A1030000A3030000A5030000A703000003
:10016000000000000000000000000000000000008F
:10017000000000000000000000000000000000007F
:10018000000000000000000000000000000000006F
:10019000000000000000000000000000000000005F
:1001A000000000000000000000000000000000004F
:1001B000A9030000AB030000AD030000AF03000083
:1001C000B1030000B3030000B5030000B703000053
:1001D000B9030000BB030000BD030000BF03000023
:1001E000C1030000C3030000C503000000000000BD
:1001F00000000000C7030000C9030000CB0300009B
:10020000CD030000CF03000000000000000000004C
:10021000D1030000D3030000D5030000D703000082
:10022000D9030000DB030000DD030000DF03000052
:10023000E1030000E3030000E5030000E703000022
:10024000E9030000EB030000ED030000EF030000F2
:10025000F1030000F3030000F5030000F7030000C2
:10026000F9030000FB030000FD03000000F002F8AA
:1002700000F03CF80AA090E8000C82448344AAF104
:100280000107DA4501D100F031F8AFF2090EBAE802
:100290000F0013F0010F18BFFB1A43F001031847BA
:1002A0007C0700009C070000103A24BF78C878C182
:1002B000FAD8520724BF30C830C144BF04680C606C
:1002C000704700000023002400250026103A28BFB4
:1002D00078C1FBD8520728BF30C148BF0B607047B8
:1002E0001FB500F096FB1FBD10B510BD00F05BFB05
:1002F0001146FFF7F5FF00F0B9F900F079FB03B400
:10030000FFF7F2FF03BC00F07DFB00003F48804791
:100310003F480047FEE7FEE7FEE7FEE7FEE7FEE7B1
:10032000FEE7FEE7FEE7FEE7FEE7FEE7FEE7FEE7A5
:10033000FEE7FEE7FEE7FEE7FEE7FEE7FEE7FEE795
:10034000FEE7FEE7FEE7FEE7FEE7FEE7FEE7FEE785
:10035000FEE7FEE7FEE7FEE7FEE7FEE7FEE7FEE775
:10036000FEE7FEE7FEE7FEE7FEE7FEE7FEE7FEE765
:10037000FEE7FEE7FEE7FEE7FEE7FEE7FEE7FEE755
:10038000FEE7FEE7FEE7FEE7FEE7FEE7FEE7FEE745
:10039000FEE7FEE7FEE7FEE7FEE7FEE7FEE7FEE735
:1003A000FEE7FEE7FEE7FEE7FEE7FEE7FEE7FEE725
:1003B000FEE7FEE7FEE7FEE7FEE7FEE7FEE7FEE715
:1003C000FEE7FEE7FEE7FEE7FEE7FEE7FEE7FEE705
:1003D000FEE7FEE7FEE7FEE7FEE7FEE7FEE7FEE7F5
:1003E000FEE7FEE7FEE7FEE7FEE7FEE7FEE7FEE7E5
:1003F000FEE7FEE7FEE7FEE7FEE7FEE7FEE70000BA
:1004000004480549034A054B704700008D0500006C
:100410006D020000700000207002002070000020BB
:100420000246764831B101294CD002294CD003292B
:100430004FD14BE0172A43D2DFE802F00C0E111324
:1004400016181B1D20232527292B2E30333537392D
:100450003B3D3F006A4833E04FF4E11030E069482B
:100460002EE04FF416102BE0674829E04FF461109E
:1004700026E0664824E04FF47A1021E04FF496001D
:100480001EE063481CE063481AE0634818E06348D4
:1004900016E04FF4E10013E0614811E04FF4FA0078
:1004A0000EE060480CE055480AE05F4808E05F480D
:1004B00006E05F4804E05F4802E04FF47A0000BFC6
:1004C00000BF06E04D4804E05B4802E047F23050D0
:1004D00000BF00BF704770B55848046E056F15F037
:1004E000004F29D015F4006F08D0C5F30211C4F3F2
:1004F0008310FFF795FF5249086002E051485049C8
:10050000086014F4800F40D015F4006F09D04C48F7
:100510000168C5F3C550401CB1FBF0F048490860C4
:1005200033E047480168C5F3C550401CB1FBF0F00B
:1005300040084349086028E014F4006F08D0C4F371
:100540000111C4F38410FFF76BFF3D49086002E01E
:100550003C483B49086014F4800F16D014F4006F37
:1005600009D037480168C4F3C350401CB1FBF0F018
:100570003349086009E032480168C4F3C350401CA5
:10058000B1FBF0F040082E49086070BD2E490968A3
:1005900041F470012C4A11602C49284A11672C49FA
:1005A00011662C4911662C491167002000E0401C9F
:1005B000B0F57A7FFBD32949204A11662849116793
:1005C000002000E0401CB0F57A7FFBD325491B4A90
:1005D000116600BF1949096D01F040014029F9D1A8
:1005E0002149164A11664FF0C0711167002000E0E2
:1005F000401C42F210718842FAD37047001BB700CA
:1006000040420F0080841E00999E360000093D0084
:10061000404B4C0000204E00808D5B0000C05D0010
:1006200000127A00809698000080BB00C0E8CE00DF
:10063000647ADA000024F400C0C62D0000E00F4008
:10064000000000200084D71788ED00E01028800704
:10065000D13A8E07422D9E0100288001420D9E0155
:1006600000088001420DDE014205DE0100F06EF956
:1006700000F082F977E03C4802683C4801683C4859
:10068000006800F06BF900F07BF908B34FF4C87014
:1006900000F070F800F074F9D0B133480068092810
:1006A0001DD100203049086030480068092810D169
:1006B00000202E4908602E480068092803D1002038
:1006C0002B49086010E02A480068401C284908604F
:1006D0000AE026480068401C2449086004E02248DB
:1006E0000068401C2049086000F04DF920BB4FF421
:1006F000C87000F03FF800F046F9E8B11A48006809
:10070000D8B90920184908601848006878B9092044
:10071000164908601648006818B90920144908608D
:1007200010E013480068401E114908600AE00F48B5
:100730000068401E0D49086004E00B480068401E38
:100740000949086000F022F968B14FF4FA7000F02E
:1007500011F800F01BF930B9002003490860034983
:1007600008600349086086E70800002004000020B4
:100770000C000020124A126842F00102104B1A606D
:100780000022104BDA6004221A6002225A6043F6FB
:100790007F629A6201225A621A46D26842F00102CE
:1007A000DA60002109E000BF064AD26912F0010FA9
:1007B000FAD00122034B5A62491C8142F3DB704795
:1007C00004E60F400000034008B54D48006840F0C3
:1007D00002004C49C1F808014FF0200000904FF092
:1007E000FF00494908604FF0000001F10401086072
:1007F00001F1040108604FF0FF00444908604FF028
:10080000000043490860434908604FF0FF00424937
:10081000086008BD08B53A48006840F0080039494A
:10082000C1F808014FF0200000904FF00F003B4945
:1008300008604FF0000001F10401086001F10401BB
:1008400008604FF00F00364908604FF0000035494E
:100850000860354908604FF00F003449086008BD52
:1008600008B52748006840F010002649C1F8080183
:100870004FF0200000904FF00F002D4908604FF01E
:10088000000001F10401086001F1040108604FF06B
:100890000F00284908604FF00000274908604FF01A
:1008A0000F002649086008BD08B52548006840F0DB
:1008B000010023490860202000902248006820F0B1
:1008C000E00020490860081D006820F47000091D40
:1008D00008601D48006820F0E0001B4908601A48C5
:1008E0002030006820F0E0001749203108601548EA
:1008F0000C38006840F0E00012490C39086008BD6F
:1009000008E10F4000E00F40245500400054004033
:1009100020540040105500401C55004024750040F4
:100920000074004020740040107500401C750040A9
:100930002445024000440240204402401C4502403D
:1009400008E60F40284500400044004010B5FFF77E
:100950003BFFFFF785FFFFF75DFF10BD034B1A60FC
:10096000034BC3F8FC13034B18607047FC43024071
:1009700000500040FC73004010B5FFF795FF10BD1C
:1009800004480068704704480068704703480068DE
:10099000704700008040004000410040004200409D
:1009A000704770477047754600F028F8AE4605005E
:1009B0006946534620F00700854618B020B5FFF77A
:1009C0001FFDBDE820404FF000064FF000074FF03C
:1009D00000084FF0000B21F00701AC46ACE8C0095D
:1009E000ACE8C009ACE8C009ACE8C0098D46704766
:1009F0000446AFF300802046FFF781FC00487047B3
:100A00001000002001491820ABBEFEE726000200BE
:100A100070474FF04070E1EE100A70473C0A00004A
:100A20000000002010000000A80200004C0A000096
:100A30001000002060020000C402000080F0FA02F2
:0C0A4000000000000000000000000000AA
:040000050000030DE7
:00000001FF
